:020000040800F2
:1000000000280020710C00080D0C0008150C0008D9
:100010001D0C0008250C00082D0C00080000000035
:10002000000000000000000000000000350C000887
:10003000410C0008000000004D0C0008590C00089D
:10004000B90C0008B90C0008B90C0008B90C00087C
:10005000B90C0008B90C0008B90C0008B90C00086C
:10006000B90C0008B90C0008B90C0008B90C00085C
:10007000B90C0008B90C0008B90C0008B90C00084C
:10008000B90C0008B90C0008B90C0008B90C00083C
:10009000B90C0008B90C0008B90C0008B90C00082C
:1000A000B90C0008B90C0008B90C0008B90C00081C
:1000B000B90C0008B90C000800000000B90C0008D9
:1000C000B90C00080000000000000000B90C000896
:1000D00000000000B90C0008B90C00080000000086
:1000E000B90C0008B90C0008B90C000800000000A9
:1000F0000000000000000000000000000000000000
:0C01000000000000000000005FF808F1A3
:10010C0010B5054C237833B9044B13B10448AFF345
:10011C0000800123237010BD0C00002000000000A3
:10012C00CC1A000808B5034B1BB103490348AFF3C5
:10013C00008008BD0000000010000020CC1A000850
:10014C0080B582B000AF78607B68002B2AD100228A
:10015C004FF48071CB4801F091F800224FF40071FC
:10016C00C84801F08BF800224FF48061C54801F0BB
:10017C0085F800224FF40061C24801F07FF800229C
:10018C004FF48051BF4801F079F800224FF4005130
:10019C00BC4801F073F801224FF48041B94801F0DA
:1001AC006DF8C9E17B68012B2AD101224FF48071D3
:1001BC00B44801F063F800224FF40071B14801F02B
:1001CC005DF800224FF48061AE4801F057F801222F
:1001DC004FF40061AB4801F051F801224FF480510B
:1001EC00A84801F04BF801224FF40051A54801F04A
:1001FC0045F801224FF48041A24801F03FF89BE101
:10020C007B68022B2AD100224FF480719D4801F0AB
:10021C0035F800224FF400719A4801F02FF80122B2
:10022C004FF48061974801F029F800224FF40061E7
:10023C00944801F023F800224FF48051914801F0CA
:10024C001DF801224FF400518E4801F017F80022DE
:10025C004FF480418B4801F011F86DE17B68032B62
:10026C002AD100224FF48071864801F007F8002251
:10027C004FF40071834801F001F800224FF48061C3
:10028C00804800F0FBFF00224FF400617D4800F035
:10029C00F5FF01224FF480517A4800F0EFFF012264
:1002AC004FF40051774800F0E9FF00224FF48041F1
:1002BC00744800F0E3FF3FE17B68042B2AD1012254
:1002CC004FF480716F4800F0D9FF00224FF4007199
:1002DC006C4800F0D3FF00224FF48061694800F0B5
:1002EC00CDFF01224FF40061664800F0C7FF0122E8
:1002FC004FF48051634800F0C1FF00224FF40051CD
:10030C00604800F0BBFF00224FF480415D4800F0D4
:10031C00B5FF11E17B68052B2AD100224FF48071C7
:10032C00584800F0ABFF01224FF40071554800F023
:10033C00A5FF00224FF48061524800F09FFF00227D
:10034C004FF400614F4800F099FF01224FF48051A7
:10035C004C4800F093FF00224FF40051494800F044
:10036C008DFF00224FF48041464800F087FFE3E008
:10037C007B68062B2AD100224FF48071414800F093
:10038C007DFF01224FF400713E4800F077FF002200
:10039C004FF480613B4800F071FF00224FF4006184
:1003AC00384800F06BFF00224FF48051354800F0C4
:1003BC0065FF00224FF40051324800F05FFF00222D
:1003CC004FF480412F4800F059FFB5E07B68072BB4
:1003DC002AD100224FF480712A4800F04FFF0022EE
:1003EC004FF40071274800F049FF00224FF4806160
:1003FC00244800F043FF01224FF40061214800F033
:10040C003DFF01224FF480511E4800F037FF0122BE
:10041C004FF400511B4800F031FF01224FF4804192
:10042C00184800F02BFF87E07B68082B2CD10022AA
:10043C004FF48071134800F021FF00224FF400713B
:10044C00104800F01BFF00224FF480610D4800F0B3
:10045C0015FF00224FF400610A4800F00FFF002244
:10046C004FF48051074800F009FF00224FF400516F
:10047C00044800F003FF00224FF48041014800F0D3
:10048C00FDFE59E0000801407B68092B2AD10022AF
:10049C004FF480712A4800F0F1FE00224FF40071F5
:1004AC00274800F0EBFE00224FF48061244800F056
:1004BC00E5FE00224FF40061214800F0DFFE01222E
:1004CC004FF480511E4800F0D9FE00224FF4005129
:1004DC001B4800F0D3FE00224FF48041184800F076
:1004EC00CDFE29E001224FF48071154800F0C6FEC4
:1004FC0001224FF40071124800F0C0FE01224FF4AB
:10050C0080610F4800F0BAFE01224FF400610C48E4
:10051C0000F0B4FE01224FF48051094800F0AEFE09
:10052C0001224FF40051064800F0A8FE01224FF4BE
:10053C008041034800F0A2FE00BF0837BD4680BDD5
:10054C000008014080B584B000AF0023FB73052385
:10055C00BB600223FB7103233B60B868FFF7F0FD1F
:10056C00FB7B002B19D1002202215C4800F086FE97
:10057C0001220421594800F081FE0122082157482C
:10058C0000F07CFEBB68013BBB60BB68002B3DDC14
:10059C000223FB730323BB6038E0FB7B022B19D1D6
:1005AC00012202214D4800F069FE012204214B4832
:1005BC0000F064FE00220821484800F05FFEBB6892
:1005CC00013BBB60BB68002B20DC0123FB730223C7
:1005DC00BB601BE0FB7B012B18D1012202213F48A1
:1005EC0000F04CFE002204213C4800F047FE0122A2
:1005FC0008213A4800F042FEBB68013BBB60BB6877
:10060C00002B03DC0023FB730523BB60386800F070
:10061C0069F8FB79002B1CD100224FF400513048B3
:10062C0000F02CFE01224FF480412D4800F026FEF4
:10063C0001224FF400412A4800F020FE3B68013BA8
:10064C003B603B68002B43DC0223FB7103233B60C4
:10065C003EE0FB79022B1CD101224FF400512048C3
:10066C0000F00CFE01224FF480411D4800F006FE04
:10067C0000224FF400411A4800F000FE3B68013B99
:10068C003B603B68002B23DC0123FB7102233B60A6
:10069C001EE0FB79012B1BD101224FF400511048B5
:1006AC0000F0ECFD00224FF480410D4800F0E6FD17
:1006BC0001224FF400410A4800F0E0FD3B68013B89
:1006CC003B603B68002B03DC0023FB7105233B6084
:1006DC004FF47A7000F04EFB3FE700BF000801407A
:1006EC00000C014080B582B000AF78607B68002BB5
:1006FC0023D100220121C04800F0C0FD00220221BC
:10070C00BD4800F0BBFD00220421BB4800F0B6FD43
:10071C0000220821B84800F0B1FD00221021B64893
:10072C0000F0ACFD00222021B34800F0A7FD01220F
:10073C004021B14800F0A2FD83E17B68012B23D15D
:10074C0001220121AC4800F099FD00220221AA48A7
:10075C0000F094FD00220421A74800F08FFD012237
:10076C000821A54800F08AFD01221021A24800F0C2
:10077C0085FD01222021A04800F080FD01224021AE
:10078C009D4800F07BFD5CE17B68022B23D10022AD
:10079C000121994800F072FD00220221964800F0D8
:1007AC006DFD01220421944800F068FD002208210F
:1007BC00914800F063FD002210218F4800F05EFD8F
:1007CC00012220218C4800F059FD002240218A484A
:1007DC0000F054FD35E17B68032B23D1002201216D
:1007EC00854800F04BFD00220221834800F046FDB5
:1007FC0000220421804800F041FD002208217E489F
:10080C0000F03CFD012210217B4800F037FD012255
:10081C002021794800F032FD00224021764800F07A
:10082C002DFD0EE17B68042B23D10122012172489E
:10083C0000F024FD002202216F4800F01FFD002271
:10084C0004216D4800F01AFD012208216A4800F0CD
:10085C0015FD01221021684800F010FD0022202116
:10086C00654800F00BFD00224021634800F006FDB6
:10087C00E7E07B68052B23D1002201215E4800F0C4
:10088C00FDFC012202215C4800F0F8FC002204214E
:10089C00594800F0F3FC00220821574800F0EEFC08
:1008AC0001221021544800F0E9FC0022202152487A
:1008BC0000F0E4FC002240214F4800F0DFFCC0E0D7
:1008CC007B68062B23D1002201214B4800F0D6FC7B
:1008DC0001220221484800F0D1FC002204214648A4
:1008EC0000F0CCFC00220821434800F0C7FC002299
:1008FC001021414800F0C2FC002220213E4800F0AB
:10090C00BDFC002240213C4800F0B8FC99E07B681B
:10091C00072B23D100220121374800F0AFFC002225
:10092C000221354800F0AAFC00220421324800F0D4
:10093C00A5FC01220821304800F0A0FC0122102166
:10094C002D4800F09BFC012220212B4800F096FC46
:10095C0001224021284800F091FC72E07B68082BB2
:10096C0023D100220121244800F088FC002202211E
:10097C00214800F083FC002204211F4800F07EFC7B
:10098C00002208211C4800F079FC002210211A4892
:10099C0000F074FC00222021174800F06FFC0022AC
:1009AC004021154800F06AFC4BE07B68092B25D1EF
:1009BC0000220121104800F061FC002202210E48A7
:1009CC0000F05CFC002204210B4800F057FC0022D4
:1009DC000821094800F052FC01221021064800F0C1
:1009EC004DFC00222021044800F048FC002240214C
:1009FC00014800F043FC24E0000C014001220121DD
:100A0C00124800F03BFC01220221104800F036FC99
:100A1C00012204210D4800F031FC012208210B4871
:100A2C0000F02CFC01221021084800F027FC0122C8
:100A3C002021064800F022FC01224021034800F04E
:100A4C001DFC00BF0837BD4680BD00BF000C014037
:100A5C0080B500AF00F02CF900F009F800F042F876
:100A6C00FFF770FD4FF47A7000F084F9F8E780B569
:100A7C0090B000AF07F1180328220021184600F0AF
:100A8C00F3FF3B1D00221A605A609A60DA601A610B
:100A9C000223BB610123BB621023FB6200237B6337
:100AAC0007F11803184600F001FC0346002B01D097
:100ABC0000F06EF80F237B600023BB600023FB600B
:100ACC0000233B6100237B613B1D0021184600F095
:100ADC006FFE0346002B01D000F05AF800BF4037E0
:100AEC00BD4680BD80B586B000AF07F1080300227B
:100AFC001A605A609A60DA60224B9B69214A43F073
:100B0C00040393611F4B9B6903F004037B607B68B8
:100B1C001C4B9B691B4A43F008039361194B9B695F
:100B2C0003F008033B603B68002247F6EE71164861
:100B3C0000F0A4FB00224EF27F01144800F09EFB53
:100B4C0047F6EE73BB600123FB6000233B6102237D
:100B5C007B6107F1080319460B4800F013FA4EF2BB
:100B6C007F03BB600123FB6000233B6102237B619D
:100B7C0007F108031946054800F004FA00BF1837BE
:100B8C00BD4680BD0010024000080140000C014031
:100B9C0080B400AF72B600BF00BFFDE780B485B073
:100BAC0000AF154B9B69144A43F001039361124B40
:100BBC009B6903F00103BB60BB680F4BDB690E4AFA
:100BCC0043F08053D3610C4BDB6903F080537B60A3
:100BDC007B680A4B5B68FB60FB6823F0E063FB609F
:100BEC00FB6843F08063FB60044AFB68536000BF02
:100BFC001437BD4680BC7047001002400000014015
:100C0C0080B400AF00BFFDE780B400AF00BFFDE7CC
:100C1C0080B400AF00BFFDE780B400AF00BFFDE7BC
:100C2C0080B400AF00BFFDE780B400AF00BFBD468D
:100C3C0080BC704780B400AF00BFBD4680BC70471D
:100C4C0080B400AF00BFBD4680BC704780B500AF1C
:100C5C0000F074F800BF80BD80B400AF00BFBD468B
:100C6C0080BC7047FFF7F8FF0B480C490C4A002377
:100C7C0002E0D458C4500433C4188C42F9D3094A46
:100C8C00094C002301E013600432A242FBD300F0B4
:100C9C00F3FEFFF7DDFE7047000000200C00002083
:100CAC00101B00080C0000202C000020FEE70000A8
:100CBC0080B500AF084B1B68074A43F01003136064
:100CCC00032000F02BF90F2000F008F8FFF766FF67
:100CDC000023184680BD00BF0020024080B582B0C2
:100CEC0000AF7860124B1A68124B1B7819464FF400
:100CFC007A73B3FBF1F3B2FBF3F3184600F035F95A
:100D0C000346002B01D001230EE07B680F2B0AD881
:100D1C00002279684FF0FF3000F00BF9064A7B682F
:100D2C001360002300E0012318460837BD4680BD40
:100D3C0000000020080000200400002080B400AF58
:100D4C00054B1B781A46054B1B681344034A13606A
:100D5C0000BFBD4680BC7047080000202800002062
:100D6C0080B400AF024B1B681846BD4680BC704770
:100D7C002800002080B584B000AF7860FFF7F0FF4A
:100D8C00B8607B68FB60FB68B3F1FF3F05D00A4B92
:100D9C001B781A46FB681344FB6000BFFFF7E0FFAB
:100DAC000246BB68D31AFA689A42F7D800BF00BF54
:100DBC001037BD4680BD00BF0800002080B485B050
:100DCC0000AF78607B6803F00703FB600C4BDB68BB
:100DDC00BB60BA684FF6FF031340BB60FB681A0296
:100DEC00BB68134343F0BF6343F40033BB60044A56
:100DFC00BB68D36000BF1437BD4680BC704700BFD2
:100E0C0000ED00E080B400AF044BDB681B0A03F07C
:100E1C0007031846BD4680BC704700BF00ED00E0DC
:100E2C0080B483B000AF03463960FB7197F907308B
:100E3C00002B0ADB3B68DAB20C4997F90730120138
:100E4C00D2B20B4483F800230AE03B68DAB20849BB
:100E5C00FB7903F00F03043B1201D2B20B441A7658
:100E6C0000BF0C37BD4680BC704700BF00E100E0FE
:100E7C0000ED00E080B489B000AFF860B9607A6032
:100E8C00FB6803F00703FB61FB69C3F10703042B49
:100E9C0028BF0423BB61FB690433062B02D9FB6911
:100EAC00033B00E000237B614FF0FF32BB6902FA89
:100EBC0003F3DA43BB681A407B699A404FF0FF3169
:100ECC007B6901FA03F3D9437B680B401343184643
:100EDC002437BD4680BC704780B582B000AF7860C7
:100EEC007B68013BB3F1807F01D301230FE00A4AF9
:100EFC007B68013B53600F214FF0FF30FFF790FFF1
:100F0C00054B00229A60044B07221A6000231846F6
:100F1C000837BD4680BD00BF10E000E080B582B050
:100F2C0000AF78607868FFF749FF00BF0837BD460F
:100F3C0080BD80B586B000AF0346B9607A60FB73A4
:100F4C0000237B61FFF75EFF78617A68B968786986
:100F5C00FFF790FF024697F90F3011461846FFF73E
:100F6C005FFF00BF1837BD4680BD80B582B000AFB3
:100F7C0078607868FFF7B0FF034618460837BD461F
:100F8C0080BD000080B48BB000AF78603960002366
:100F9C007B6200233B6261E101227B6A02FA03F36C
:100FAC00FB613B681B68FA691340BB61BA69FB695A
:100FBC009A4240F050813B685B68974A93425ED0FE
:100FCC00954A934275D8954A934258D0934A934286
:100FDC006FD8934A934252D0914A934269D8914A1E
:100FEC0093424CD08F4A934263D88F4A934246D057
:100FFC008D4A93425DD8122B2AD8122B59D801A2B4
:10100C0052F823F08B1000086510000877100008C8
:10101C00B9100008BF100008BF100008BF1000086E
:10102C00BF100008BF100008BF100008BF10000858
:10103C00BF100008BF100008BF100008BF10000848
:10104C00BF100008BF1000086D10000881100008C8
:10105C00764A934213D02CE03B68DB683B6229E074
:10106C003B68DB6804333B6224E03B68DB68083395
:10107C003B621FE03B68DB680C333B621AE03B6869
:10108C009B68002B02D104233B6213E03B689B68F6
:10109C00012B05D108233B627B68FA691A6109E0D0
:1010AC0008233B627B68FA695A6103E000233B62C8
:1010BC0000E000BFBB69FF2B01D87B6801E07B68B7
:1010CC0004337B61BB69FF2B02D87B6A9B0002E077
:1010DC007B6A083B9B003B617B691A680F213B696B
:1010EC0001FA03F3DB431A40396A3B6901FA03F353
:1010FC001A437B691A603B685B6803F08053002BD2
:10110C0000F0A9804A4B9B69494A43F00103936163
:10111C00474B9B6903F00103BB60BB68454A7B6A84
:10112C009B08023352F82330FB607B6A03F0030305
:10113C009B000F2202FA03F3DB43FA681340FB60B7
:10114C007B683D4A93420DD07B683C4A934207D062
:10115C007B683B4A934201D1022304E0032302E063
:10116C00012300E000237A6A02F00302920093400C
:10117C00FA681343FB602F497B6A9B080233FA68B9
:10118C0041F823203B685B6803F48013002B06D0E6
:10119C002C4B9A682B49BB6913438B6006E0294B97
:1011AC009A68BB69DB43274913408B603B685B68DB
:1011BC0003F40013002B06D0224BDA682149BB69DB
:1011CC001343CB6006E01F4BDA68BB69DB431D4958
:1011DC001340CB603B685B6803F40033002B06D0F4
:1011EC00184B5A681749BB6913434B6006E0154B03
:1011FC005A68BB69DB43134913404B603B685B681F
:10120C0003F48033002B1FD00E4B1A680D49BB69B9
:10121C0013430B601FE000BF0000321000003110C0
:10122C00000022100000211000001210000011100C
:10123C00001002400000014000080140000C014079
:10124C0000100140000401400B4B1A68BB69DB43E2
:10125C00094913400B607B6A01337B623B681A6857
:10126C007B6A22FA03F3002B7FF496AE00BF00BF1B
:10127C002C37BD4680BC70470004014080B483B05D
:10128C0000AF78600B467B8013467B707B78002B1D
:10129C0003D07A887B681A6103E07B881A047B6828
:1012AC001A6100BF0C37BD4680BC704780B586B054
:1012BC0000AF78607B68002B01D1012372E27B6860
:1012CC001B6803F00103002B00F08780924B5B68D6
:1012DC0003F00C03042B0CD08F4B5B6803F00C0356
:1012EC00082B12D18C4B5B6803F48033B3F5803F31
:1012FC000BD1894B1B6803F40033002B6CD07B683B
:10130C005B68002B68D101234CE27B685B68B3F50A
:10131C00803F06D1804B1B687F4A43F480331360B7
:10132C002EE07B685B68002B0CD17B4B1B687A4AE8
:10133C0023F480331360784B1B68774A23F48023A3
:10134C0013601DE07B685B68B3F5A02F0CD1724B6A
:10135C001B68714A43F4802313606F4B1B686E4A01
:10136C0043F4803313600BE06B4B1B686A4A23F425
:10137C0080331360684B1B68674A23F48023136027
:10138C007B685B68002B13D0FFF7EAFC386108E040
:10139C00FFF7E6FC02463B69D31A642B01D9032301
:1013AC0000E25D4B1B6803F40033002BF0D014E01B
:1013BC00FFF7D6FC386108E0FFF7D2FC02463B6928
:1013CC00D31A642B01D90323ECE1534B1B6803F4B0
:1013DC000033002BF0D100E000BF7B681B6803F0EA
:1013EC000203002B63D04C4B5B6803F00C03002B07
:1013FC000BD0494B5B6803F00C03082B1CD1464BFC
:10140C005B6803F48033002B16D1434B1B6803F04D
:10141C000203002B05D07B681B69012B01D0012333
:10142C00C0E13D4B1B6823F0F8027B685B69DB0075
:10143C00394913430B603AE07B681B69002B20D0C1
:10144C00364B01221A60FFF78BFC386108E0FFF77E
:10145C0087FC02463B69D31A022B01D90323A1E175
:10146C002D4B1B6803F00203002BF0D02A4B1B689A
:10147C0023F0F8027B685B69DB00274913430B60A0
:10148C0015E0264B00221A60FFF76AFC386108E071
:10149C00FFF766FC02463B69D31A022B01D90323E2
:1014AC0080E11D4B1B6803F00203002BF0D17B681D
:1014BC001B6803F00803002B3AD07B689B69002B58
:1014CC0019D0174B01221A60FFF74AFC386108E06B
:1014DC00FFF746FC02463B69D31A022B01D90323C2
:1014EC0060E10D4B5B6A03F00203002BF0D001208E
:1014FC0000F09CFA1CE00A4B00221A60FFF730FC4B
:10150C0038610FE0FFF72CFC02463B69D31A022B23
:10151C0008D9032346E100BF0010024000004242FC
:10152C0080044242924B5B6A03F00203002BE9D128
:10153C007B681B6803F00403002B00F0A6800023DB
:10154C00FB758B4BDB6903F08053002B0DD1884B63
:10155C00DB69874A43F08053D361854BDB6903F029
:10156C008053BB60BB680123FB75824B1B6803F483
:10157C008073002B18D17F4B1B687E4A43F4807319
:10158C001360FFF7EDFB386108E0FFF7E9FB02465B
:10159C003B69D31A642B01D9032303E1754B1B68F8
:1015AC0003F48073002BF0D07B68DB68012B06D131
:1015BC006F4B1B6A6E4A43F0010313622DE07B688C
:1015CC00DB68002B0CD16A4B1B6A694A23F00103C0
:1015DC001362674B1B6A664A23F0040313621CE018
:1015EC007B68DB68052B0CD1614B1B6A604A43F0AE
:1015FC00040313625E4B1B6A5D4A43F001031362E2
:10160C000BE05B4B1B6A5A4A23F001031362584BE5
:10161C001B6A574A23F0040313627B68DB68002BB8
:10162C0015D0FFF79DFB38610AE0FFF799FB0246E6
:10163C003B69D31A41F28832934201D90323B1E0BA
:10164C004B4B1B6A03F00203002BEED014E0FFF7A8
:10165C0087FB38610AE0FFF783FB02463B69D31A2C
:10166C0041F28832934201D903239BE0404B1B6A21
:10167C0003F00203002BEED1FB7D012B05D13C4B7B
:10168C00DB693B4A23F08053D3617B68DB69002B19
:10169C0000F08780364B5B6803F00C03082B61D09D
:1016AC007B68DB69022B46D1334B00221A60FFF7B3
:1016BC0057FB386108E0FFF753FB02463B69D31A2E
:1016CC00022B01D903236DE0294B1B6803F0007337
:1016DC00002BF0D17B681B6AB3F5803F08D1244BFB
:1016EC005B6823F400327B689B68214913434B6091
:1016FC001F4B5B6823F474127B68196A7B685B6A06
:10170C000B431B4913434B601B4B01221A60FFF721
:10171C0027FB386108E0FFF723FB02463B69D31A2D
:10172C00022B01D903233DE0114B1B6803F000731E
:10173C00002BF0D035E0104B00221A60FFF710FBA5
:10174C00386108E0FFF70CFB02463B69D31A022B09
:10175C0001D9032326E0064B1B6803F00073002B12
:10176C00F0D11EE07B68DB69012B07D1012319E066
:10177C000010024000700040600042420B4B5B685E
:10178C00FB60FB6803F480327B681B6A9A4206D1CB
:10179C00FB6803F470127B685B6A9A4201D00123E8
:1017AC0000E0002318461837BD4680BD00100240EB
:1017BC0080B584B000AF786039607B68002B01D1B4
:1017CC000123D0E06A4B1B6803F007033A689A4286
:1017DC0010D9674B1B6823F0070265493B6813431C
:1017EC000B60634B1B6803F007033A689A4201D005
:1017FC000123B8E07B681B6803F00203002B20D0A8
:10180C007B681B6803F00403002B05D0594B5B6805
:10181C00584A43F4E06353607B681B6803F0080389
:10182C00002B05D0534B5B68524A43F46053536012
:10183C00504B5B6823F0F0027B689B684D49134367
:10184C004B607B681B6803F00103002B40D07B6866
:10185C005B68012B07D1474B1B6803F40033002B4B
:10186C0015D101237FE07B685B68022B07D1414BCC
:10187C001B6803F00073002B09D1012373E03D4B6F
:10188C001B6803F00203002B01D101236BE0394BE1
:10189C005B6823F003027B685B68364913434B603B
:1018AC00FFF75EFAF8600AE0FFF75AFA0246FB68A7
:1018BC00D31A41F28832934201D9032353E02D4BC2
:1018CC005B6803F00C027B685B689B009A42EBD16F
:1018DC00274B1B6803F007033A689A4210D2244B3B
:1018EC001B6823F0070222493B6813430B60204B13
:1018FC001B6803F007033A689A4201D0012332E0D7
:10190C007B681B6803F00403002B08D0194B5B6841
:10191C0023F4E0627B68DB68164913434B607B68F9
:10192C001B6803F00803002B09D0124B5B6823F4EF
:10193C0060527B681B69DB000E4913434B6000F05F
:10194C0021F802460B4B5B681B0903F00F030A4995
:10195C00CB5C22FA03F3094A1360094B1B68184647
:10196C00FFF7BCF9002318461037BD4680BD00BFF9
:10197C000020024000100240E41A00080000002081
:10198C000400002080B487B000AF0023FB6000236C
:10199C00BB6000237B6100237B6000233B611E4BFB
:1019AC005B68FB60FB6803F00C03042B02D0082B74
:1019BC0003D027E0194B3B6127E0FB689B0C03F03D
:1019CC000F03174AD35C7B60FB6803F48033002B56
:1019DC0010D0114B5B685B0C03F00103114AD35C14
:1019EC00BB607B680D4A03FB02F2BB68B2FBF3F3EE
:1019FC007B6104E07B680C4A02FB03F37B617B692F
:101A0C003B6102E0054B3B6100BF3B6918461C374C
:101A1C00BD4680BC704700BF0010024000127A0027
:101A2C00F41A0008041B000800093D0080B485B0BE
:101A3C0000AF78600A4B1B680A4AA2FB03235B0ABF
:101A4C007A6802FB03F3FB6000BFFB685A1EFA6066
:101A5C00002BF9D100BF00BF1437BD4680BC7047C6
:101A6C0000000020D34D621003460244934200D183
:101A7C00704703F8011BF9E770B500260C4D0D4CAF
:101A8C00641BA410A64209D100F01AF800260A4DD6
:101A9C000A4C641BA410A64205D170BD55F8043B3A
:101AAC0098470136EEE755F8043B98470136F2E7C4
:101ABC00081B0008081B0008081B00080C1B00086A
:101ACC00F8B500BFF8BC08BC9E467047F8B500BF1F
:081ADC00F8BC08BC9E467047EF
:101AE40000000000000000000102030406070809CA
:101AF40002030405060708090A0B0C0D0E0F10104B
:041B040001020000DA
:041B0800310100089F
:041B0C000D010008BF
:0C1B100000127A0010000000010000002C
:0400000508000C7172
:00000001FF
